{
  "contractName": "DocumentTracker",
  "abi": [
    {
      "inputs": [
        {
          "internalType": "string",
          "name": "documentHashCode",
          "type": "string"
        }
      ],
      "payable": false,
      "stateMutability": "nonpayable",
      "type": "constructor"
    },
    {
      "anonymous": false,
      "inputs": [
        {
          "indexed": false,
          "internalType": "string",
          "name": "documentHashCode",
          "type": "string"
        }
      ],
      "name": "DocumentViewRequested",
      "type": "event"
    },
    {
      "constant": true,
      "inputs": [],
      "name": "DocumentPublisher",
      "outputs": [
        {
          "internalType": "address",
          "name": "",
          "type": "address"
        }
      ],
      "payable": false,
      "stateMutability": "view",
      "type": "function"
    },
    {
      "constant": true,
      "inputs": [
        {
          "internalType": "uint256",
          "name": "",
          "type": "uint256"
        }
      ],
      "name": "InquiryEntries",
      "outputs": [
        {
          "internalType": "uint256",
          "name": "InquiryDate",
          "type": "uint256"
        },
        {
          "internalType": "address",
          "name": "InquirerAddress",
          "type": "address"
        }
      ],
      "payable": false,
      "stateMutability": "view",
      "type": "function"
    },
    {
      "constant": false,
      "inputs": [],
      "name": "getDocumentHashCode",
      "outputs": [
        {
          "internalType": "string",
          "name": "",
          "type": "string"
        }
      ],
      "payable": false,
      "stateMutability": "nonpayable",
      "type": "function"
    },
    {
      "constant": true,
      "inputs": [],
      "name": "getInquiriesCount",
      "outputs": [
        {
          "internalType": "uint256",
          "name": "",
          "type": "uint256"
        }
      ],
      "payable": false,
      "stateMutability": "view",
      "type": "function"
    }
  ],
  "bytecode": "0x608060405234801561001057600080fd5b506040516108b53803806108b5833981810160405261003291908101906101eb565b610041816100de60201b60201c565b610080576040517f08c379a000000000000000000000000000000000000000000000000000000000815260040161007790610292565b60405180910390fd5b33600160006101000a81548173ffffffffffffffffffffffffffffffffffffffff021916908373ffffffffffffffffffffffffffffffffffffffff16021790555080600090805190602001906100d79291906100f2565b505061034f565b600060608290506000815111915050919050565b828054600181600116156101000203166002900490600052602060002090601f016020900481019282601f1061013357805160ff1916838001178555610161565b82800160010185558215610161579182015b82811115610160578251825591602001919060010190610145565b5b50905061016e9190610172565b5090565b61019491905b80821115610190576000816000905550600101610178565b5090565b90565b600082601f8301126101a857600080fd5b81516101bb6101b6826102df565b6102b2565b915080825260208301602083018583830111156101d757600080fd5b6101e283828461031c565b50505092915050565b6000602082840312156101fd57600080fd5b600082015167ffffffffffffffff81111561021757600080fd5b61022384828501610197565b91505092915050565b600061023960278361030b565b91507f54686520446f63756d656e74204861736820436f64652063616e6e6f7420626560008301527f20656d7074792e000000000000000000000000000000000000000000000000006020830152604082019050919050565b600060208201905081810360008301526102ab8161022c565b9050919050565b6000604051905081810181811067ffffffffffffffff821117156102d557600080fd5b8060405250919050565b600067ffffffffffffffff8211156102f657600080fd5b601f19601f8301169050602081019050919050565b600082825260208201905092915050565b60005b8381101561033a57808201518184015260208101905061031f565b83811115610349576000848401525b50505050565b6105578061035e6000396000f3fe608060405234801561001057600080fd5b506004361061004c5760003560e01c8063814755cb14610051578063b994f3de1461006f578063e09da6bb1461008d578063fdd108e3146100be575b600080fd5b6100596100dc565b60405161006691906103c4565b60405180910390f35b6100776101d1565b60405161008491906103a9565b60405180910390f35b6100a760048036036100a2919081019061029a565b6101f7565b6040516100b5929190610423565b60405180910390f35b6100c6610248565b6040516100d39190610408565b60405180910390f35b60606100e6610255565b60405180604001604052804281526020013373ffffffffffffffffffffffffffffffffffffffff168152509050600281908060018154018082558091505090600182039060005260206000209060020201600090919290919091506000820151816000015560208201518160010160006101000a81548173ffffffffffffffffffffffffffffffffffffffff021916908373ffffffffffffffffffffffffffffffffffffffff1602179055505050507fe61fa87e35eb960d7b8c6be1b9e9b55cf2d64c3f26bf07a948431d355b38610a60006040516101c591906103e6565b60405180910390a15090565b600160009054906101000a900473ffffffffffffffffffffffffffffffffffffffff1681565b6002818154811061020457fe5b90600052602060002090600202016000915090508060000154908060010160009054906101000a900473ffffffffffffffffffffffffffffffffffffffff16905082565b6000600280549050905090565b604051806040016040528060008152602001600073ffffffffffffffffffffffffffffffffffffffff1681525090565b600081359050610294816104fd565b92915050565b6000602082840312156102ac57600080fd5b60006102ba84828501610285565b91505092915050565b6102cc8161047d565b82525050565b60006102dd82610461565b6102e7818561046c565b93506102f78185602086016104b9565b610300816104ec565b840191505092915050565b600081546001811660008114610328576001811461034e57610392565b607f6002830416610339818761046c565b955060ff198316865260208601935050610392565b6002820461035c818761046c565b95506103678561044c565b60005b828110156103895781548189015260018201915060208101905061036a565b80880195505050505b505092915050565b6103a3816104af565b82525050565b60006020820190506103be60008301846102c3565b92915050565b600060208201905081810360008301526103de81846102d2565b905092915050565b60006020820190508181036000830152610400818461030b565b905092915050565b600060208201905061041d600083018461039a565b92915050565b6000604082019050610438600083018561039a565b61044560208301846102c3565b9392505050565b60008190508160005260206000209050919050565b600081519050919050565b600082825260208201905092915050565b60006104888261048f565b9050919050565b600073ffffffffffffffffffffffffffffffffffffffff82169050919050565b6000819050919050565b60005b838110156104d75780820151818401526020810190506104bc565b838111156104e6576000848401525b50505050565b6000601f19601f8301169050919050565b610506816104af565b811461051157600080fd5b5056fea365627a7a72315820f146fc6664726f48c567cafa64bb0b2bd37d124400bfde5ac24913e0a93036fd6c6578706572696d656e74616cf564736f6c63430005100040",
  "source": "pragma solidity ^0.5.16;\npragma experimental ABIEncoderV2;\n\ncontract DocumentTracker {\n\n    string private _documentHashCode;\n\n    // Holds Viewing History\n    struct InquiryEntry {\n        uint256 InquiryDate;\n        address InquirerAddress;\n    }\n\n    address public DocumentPublisher;\n    InquiryEntry[] public InquiryEntries;\n\n    // Notify that a read was requested\n    event DocumentViewRequested(string documentHashCode);\n\n    function stringNotNullNorEmpty(string memory value) private pure returns (bool) {\n        bytes memory tempEmptyStringTest = bytes(value); // Uses memory\n        return (tempEmptyStringTest.length > 0);\n    }\n\n    constructor(string memory documentHashCode) public {\n\n        require(stringNotNullNorEmpty(documentHashCode), 'The Document Hash Code cannot be empty.');\n        \n        DocumentPublisher = msg.sender;\n        _documentHashCode = documentHashCode;\n\n    }\n\n    // This read generates a transaction and thus it is not a straight return\n    function getDocumentHashCode() public returns (string memory) {\n        \n        InquiryEntry memory inquiry = InquiryEntry({\n            InquiryDate : block.timestamp,\n            InquirerAddress : msg.sender\n        });\n        \n        // This forces the mining of a new block\n        InquiryEntries.push(inquiry);\n    \n        // Return as an event as any transaction can only return a Transaction Receipt\n        emit DocumentViewRequested(_documentHashCode);\n    }\n    \n    function getInquiriesCount() public view returns (uint) {\n        return InquiryEntries.length;\n    }\n}",
  "sourcePath": "/Users/moisesj/Learning/Ethereum/Simple-Document-Tracker/src/Ethereum/contracts/DocumentTracker.sol",
  "compiler": {
    "name": "solc",
    "version": "0.5.16+commit.9c3226ce.Emscripten.clang"
  },
  "schemaVersion": "3.0.21",
  "updatedAt": "2020-02-15T03:24:11.224Z",
  "devdoc": {
    "methods": {}
  },
  "userdoc": {
    "methods": {}
  }
}